:060000000A128A11F12F23
:100F14007E088A007F0882008A270A128A118000CC
:100F2400840A04087D0603190034FF0A0319FE0A23
:100F34008E2FC034F934A434B034993492348234CA
:100F4400F834803490343F3406345B344F346634A0
:100F54006D347D3407347F346F34F7017708203ED5
:100F6400840083130008831203138600831603137B
:100F740086017708831203138700831603138701FE
:100F840077082A3E8400000883120313880083161E
:100F9400031388010630F6001330F500B130F40075
:100FA400F40BD22FF50BD22FF60BD22FD92F013001
:100FB400F4007408F7070A3077020318F70177087A
:100FC400203E8400831300088312031386007708ED
:100FD4002A3E84000008880077088700CC2F34302C
:100FE400FD000730FE009B30FF00203084000A1211
:0C0FF4008A118E2783010A128A11AF2F88
:02400E0039FF78
:00000001FF
